{
  "transactions": [
    {
      "hash": "0xe9f87c459858e7c4e1a333d60f9e23dbba0980f929448d510cd1167a0fbb8b28",
      "transactionType": "CALL",
      "contractName": null,
      "contractAddress": "0x99295c8970de3c8ad57fda843069840f672bf98f",
      "function": "mintNft(string)",
      "arguments": [
        "\"ipfs://bafybeig37ioir76s7mg5oobetncojcm3c3hxasyd4rvid4jqhy4gkaheg4/?filename=0-PUG.json\""
      ],
      "transaction": {
        "from": "0x6c49fc18549624464b67e1d0cc2f385142f70466",
        "to": "0x99295c8970de3c8ad57fda843069840f672bf98f",
        "gas": "0x3d60d",
        "value": "0x0",
        "input": "0xda86f4a900000000000000000000000000000000000000000000000000000000000000200000000000000000000000000000000000000000000000000000000000000057697066733a2f2f62616679626569673337696f6972373673376d67356f6f6265746e636f6a636d3363336878617379643472766964346a71687934676b61686567342f3f66696c656e616d653d302d5055472e6a736f6e000000000000000000",
        "nonce": "0x9",
        "chainId": "0xaa36a7"
      },
      "additionalContracts": [],
      "isFixedGasLimit": false
    }
  ],
  "receipts": [
    {
      "status": "0x1",
      "cumulativeGasUsed": "0xdad597",
      "logs": [
        {
          "address": "0x99295c8970de3c8ad57fda843069840f672bf98f",
          "topics": [
            "0xddf252ad1be2c89b69c2b068fc378daa952ba7f163c4a11628f55a4df523b3ef",
            "0x0000000000000000000000000000000000000000000000000000000000000000",
            "0x0000000000000000000000006c49fc18549624464b67e1d0cc2f385142f70466",
            "0x0000000000000000000000000000000000000000000000000000000000000000"
          ],
          "data": "0x",
          "blockHash": "0x7475023430443363044a9a7e4f55282819b1716150ffa952d7344d2053e2190c",
          "blockNumber": "0x5ec39a",
          "transactionHash": "0xe9f87c459858e7c4e1a333d60f9e23dbba0980f929448d510cd1167a0fbb8b28",
          "transactionIndex": "0x82",
          "logIndex": "0xdf",
          "removed": false
        }
      ],
      "logsBloom": "0x00000000000000000000002000000000000000000000000000000000000000000000000000000000000000000000000000000000000000000000000000000000000000000000000000008008000000000000000000000000000000000000000000000000030000000000000000000801000000000000000000000010000000000000000000000000000000000000000000000000000000000000000000000000000000000000000000000000000000000000000100000000000000000000000000000002000000000000000000000000000000000000000000000000000020000000000000000000000000000000000000000000000000000000000000000010",
      "type": "0x0",
      "transactionHash": "0xe9f87c459858e7c4e1a333d60f9e23dbba0980f929448d510cd1167a0fbb8b28",
      "transactionIndex": "0x82",
      "blockHash": "0x7475023430443363044a9a7e4f55282819b1716150ffa952d7344d2053e2190c",
      "blockNumber": "0x5ec39a",
      "gasUsed": "0x2c6fe",
      "effectiveGasPrice": "0x73306f5a3",
      "from": "0x6c49fc18549624464b67e1d0cc2f385142f70466",
      "to": "0x99295c8970de3c8ad57fda843069840f672bf98f",
      "contractAddress": null
    }
  ],
  "libraries": [],
  "pending": [],
  "returns": {},
  "timestamp": 1719647296,
  "chain": 11155111,
  "commit": "2274d74"
}